:1000000000000420C1010000ED010000ED0100002E
:10001000ED010000ED010000ED010000ED01000028
:10002000ED010000ED010000ED010000ED01000018
:10003000ED010000EC010000ED010000ED01000009
:10004000ED010000ED010000ED010000ED010000F8
:10005000ED010000ED010000ED010000ED010000E8
:10006000ED010000ED010000ED010000ED010000D8
:10007000ED010000ED010000ED010000ED010000C8
:10008000ED010000313D0000ED010000ED01000038
:10009000ED010000ED010000ED010000ED010000A8
:1000A000ED010000ED010000ED0100000541000040
:1000B000ED010000ED010000ED010000ED01000088
:1000C000ED010000ED010000ED010000ED01000078
:1000D000ED010000ED010000ED010000ED01000068
:1000E000ED010000ED010000993D0000ED01000070
:1000F000ED010000ED010000ED010000ED01000048
:10010000ED010000ED010000ED01000010B5054C0F
:10011000237833B9044B13B10448AFF300800123B3
:10012000237010BDAC000020000000005849000002
:1001300008B5034B1BB103490348AFF3008008BD6A
:1001400000000000B000002058490000154B002BB3
:1001500008BF134B9D46A3F5803A00218B460F46FE
:100160001348144A121A04F073FA0F4B002B00D0F4
:1001700098470E4B002B00D0984700200021040028
:100180000D000D48002802D00C48AFF3008004F0A9
:100190003BFA2000290004F0B9F904F021FA00BF6D
:1001A0000000080000000420000000000000000023
:1001B000AC0000202C010020000000000000000026
:1001C000064880470649074A074B9A42BEBF51F886
:1001D000040B42F8040BF8E7FFF7B8FFE502000054
:1001E0006449000000000020AC000020FEE700BFD2
:1001F00080B582B000AF00F025F878600A4BD3F8E4
:1002000008311B0AC3F308033B603B6801337A687B
:10021000B2FBF3F37B60054A7B6813607B6818468A
:100220000837BD4680BD00BF00400E4008000020DA
:1002300080B400AF024B1846BD465DF8047B7047A2
:10024000005A620280B483B000AF1C4BD3F89430E4
:1002500003F00703023B032B1BD801A252F823F043
:100260008102000079020000710200008902000092
:10027000134B1B687B6010E04FF400437B600CE085
:10028000104B1B687B6008E00F4B1B685B087B60B2
:1002900003E00D4B1B687B6000BF084BD3F80031B7
:1002A0001B0A03F01F0301337A68B2FBF3F318460D
:1002B0000C37BD465DF8047B704700BF00400E4020
:1002C00004000020000000200C00002080B400AFDB
:1002D000034B1B681846BD465DF8047B704700BFA2
:1002E0000000002080B400AF074B084A9A60064B1C
:1002F000D3F88830044A43F47003C2F8883000BF52
:10030000BD465DF8047B704700ED00E00000000092
:1003100080B400AF4FF400431846BD465DF8047B3F
:10032000704780B400AF4FF47A731846BD465DF84D
:10033000047B704780B400AF034B1B681846BD4672
:100340005DF8047B704700BF0400002080B483B0D8
:1003500000AF78603960FEE780B487B000AFF86026
:10036000B9607A60FB6803F10473DA00BB68134478
:100370009B007B617B697A681A6000BF1C37BD46B1
:100380005DF8047B704780B485B000AF7860396059
:100390007B6803F10473DA003B6813449B00FB6045
:1003A000FB681B6818461437BD465DF8047B704730
:1003B00080B582B000AF78607B681F2B04D94FF402
:1003C00096710548FFF7C2FF01227B6802FA03F32A
:1003D00018460837BD4680BD8846000080B400AF8F
:1003E000064B1B6803F04003002B01D1012300E002
:1003F00000231846BD465DF8047B70473C300E4034
:1004000080B500AFFFF7EAFF034683F00103DBB2DC
:10041000002B08D100BF12210448FFF7B4FF0346A8
:10042000002BF8D100E000BF80BD00BF04300E40BB
:1004300080B500AFFFF7E4FF034B5B681B0C03F0D4
:100440000303DBB2184680BD00300E4080B584B097
:1004500000AF78600123FB607B68124A934204D8A6
:100460000023FB600023BB6008E07B680E4A9342D8
:1004700002D80123BB6001E00223BB60FA681021AF
:100480000A48FFF769FF094BD3F8003123F0807267
:10049000BB681B0605491343C1F8003100BF103784
:1004A000BD4680BD0048E8010090D00300400E40EA
:1004B00080B483B000AF054B1B687B607B68184637
:1004C0000C37BD465DF8047B704700BF100000206C
:1004D00080B582B000AFFFF7B5FE7860064BD3F869
:1004E00000311B0A03F01F0301337A6802FB03F398
:1004F00018460837BD4680BD00400E4080B582B02A
:1005000000AF0F4800F068FC0346FB70FB78072B38
:1005100005D0092B07D1FFF795FE78600BE0FFF7B8
:10052000C7FF786007E000237B6040F6155105485F
:10053000FFF70CFF00BF7B6818460837BD4680BD3B
:1005400006000E005447000080B584B000AF78600C
:100550007B68002B1CD1204800F03EFC0346FB7258
:1005600000BFFB7A013B072B28D801A252F823F0E9
:100570009F050000BD050000BD050000AD050000A1
:10058000BD050000BD050000A5050000B505000083
:1005900040F635511148FFF7D9FE002317E000233C
:1005A000FB6013E0FFF784FFF8600FE0FFF78EFEBB
:1005B000F8600BE0FFF78CFFF86007E00023FB60BA
:1005C00040F64C510548FFF7C1FE00BFFB681846D6
:1005D0001037BD4680BD00BFB80032005447000050
:1005E00080B584B000AF78603960204B5B6803F061
:1005F0004073FB600023BB6012E01D4ABB68DB0058
:1006000013441A793B68DBB29A4206D1184ABB6898
:1006100052F833307A689A4206D9BB680133BB601E
:10062000BB68042BE9D900E000BFBB68052B07D1EC
:100630000323FB6040F653610E48FFF787FE05E099
:100640000B4ABB68DB0013445B79FB60FB681B064D
:10065000FB60064B5B6823F040720449FB68134360
:100660004B6000BF1037BD4680BD00BF00000E408C
:10067000684700005447000080B582B000AF0E4BC1
:100680001B6C002B14BF01230023FB710A4B41F6A6
:1006900071321A64FFF7CCFD034600211846FFF7BC
:1006A0009FFFFB79002B02D0034B00221A6400BF8E
:1006B0000837BD4680BD00BF00000E4080B584B045
:1006C00000AF786039600C4B1B6C002B14BF01230A
:1006D0000023FB73084B41F671321A64396878685D
:1006E000FFF77EFFFB7B002B02D0034B00221A6436
:1006F00000BF1037BD4680BD00000E4080B487B0FB
:1007000000AF78600F237B617B6803333B617B69BB
:10071000FB60FA683B69934228BF1346BB60BB6825
:100720001B07BB60BB6818461C37BD465DF8047BE1
:100730007047000080B400AF044B5B6A1B0903F0F4
:1007400003031846BD465DF8047B704700400E4029
:1007500080B483B000AF7860074B5B6A23F030024F
:100760007B681B01044913434B6200BF0C37BD4635
:100770005DF8047B704700BF00400E4090B585B027
:1007800000AF78600023BB607B683C4A93420BD08B
:100790003B4A934208D03B4A934205D040F65371FE
:1007A0003948FFF7D3FD00E000BF786800F014FB84
:1007B0000346FB607B68314A93420CD0304A934237
:1007C00010D0304A934214D1304BD3F8803003F02C
:1007D0000703FB6013E02D4BD3F8843003F00703CD
:1007E000FB600CE0294BD3F8883003F00703FB6073
:1007F00005E040F682712448FFF7A8FD00BFFB68C2
:10080000042B2ED801A252F823F000BF5D0800008F
:100810002108000029080000390800003108000004
:10082000FFF776FDB86024E0FFF784FDB86020E0B4
:10083000FFF777FDB8601CE0FFF704FD0446134B9B
:10084000D3F800311B0E03F0010301331846FFF704
:10085000AFFD0346B4FBF3F3BB600AE00023BB60CB
:1008600007E00023BB6040F6D4710748FFF76EFD38
:1008700000BFBB6818461437BD4690BD030020007A
:100880000500240002001E005447000000400E40F6
:1008900080B483B000AF78600A4BD3F8443103F0E2
:1008A0000103002B08D100BF064BD3F840217B6821
:1008B0001340002BF8D100E000BF0C37BD465DF8B7
:1008C000047B704700400E4080B400AF00BFBD46BF
:1008D0005DF8047B704780B400AF00BFBD465DF893
:1008E000047B704780B582B000AF7860786800F014
:1008F00093F90346013318460837BD4680BD000012
:1009000080B586B000AF78600B46FB7000233B617A
:100910007B681B0A03F00F03013B092B32D801A2AD
:1009200052F823F04D090000590900008509000024
:1009300085090000530900005F09000069090000F3
:1009400085090000730900007F0900001A4B7B61D4
:100950001EE01A4B7B611BE0194B7B6118E0194BC1
:100960007B6101233B6113E0174B7B6110233B61EB
:100970000EE0164B7B614FF480333B6108E0144B73
:100980007B6105E041F2F2311248FFF7DFFC10E035
:100990007B681B0B03F01F03FB603B69002B02D03D
:1009A0003869FFF775FFFB781A46F9687869FFF731
:1009B000D3FC1837BD4680BD00400E40B0400E400D
:1009C000C0400E40E0400E40E8400E40F0400E4077
:1009D00050410E405447000090B585B000AF78609C
:1009E0007B6803F47813B3F5B01F00F09480B3F57F
:1009F000B01F21D8B3F5202F58D0B3F5202F08D839
:100A0000B3F5003F56D0B3F5802F40D0002B3AD03D
:100A1000EBE0B3F5602F00F0D080B3F5602F03D882
:100A2000B3F5402F55D0E0E0B3F5801F00F0C9804A
:100A3000B3F5A01F61D0D8E0B3F5101F00F0B88067
:100A4000B3F5101F0BD8B3F5F01F51D0B3F5001F4D
:100A500000F08280B3F5D01F00F08380C5E0B3F5CD
:100A6000401F00F09180B3F5401F03D8B3F5381F45
:100A700063D0BAE0B3F5481F00F0A780B3F5781F44
:100A800000F0A880B1E0FFF7DDFBF860B5E0FFF70C
:100A9000D9FBF8605B4BD3F80C311B0AC3F3080396
:100AA0000133FA68B2FBF3F3FB60A6E0FFF7CAFB81
:100AB000F860A2E0FFF7C6FBF860524BD3F80831AC
:100AC0001B0AC3F308030133FA68B2FBF3F3FB60BC
:100AD00093E0FFF7B7FBF8604A4BD3F814311B0AD9
:100AE00003F01F030133FA68B2FBF3F3FB6084E009
:100AF0004548FFF743FEF8607FE04448FFF73EFEBD
:100B0000F860404BD3F8303103F00303FA6822FA5F
:100B100003F3FB6071E03C48FFF730FEF860394BAF
:100B2000D3F8203103F00F031846FFF741FC0246CB
:100B3000FB68B3FBF2F3FB605FE03348FFF71EFE98
:100B4000F860304BD3F820311B0903F00303FA6837
:100B500022FA03F3FB6050E02D48FFF70FFEF86028
:100B60004BE02B48FFF70AFEF860264BD3F82831FC
:100B70001B0903F003031846FFF71AFC0246FB6843
:100B8000B3FBF2F3FB6038E02148FFF7F7FDF860B4
:100B90001C4BD3F828311B0A03F003030433184617
:100BA000FFF706FC0246FB68B3FBF2F3FB6024E0B0
:100BB0001648FFF7E3FDF8601FE0FFF79FFCF860C1
:100BC0001BE0FFF775FCF86017E00020FFF7BCFCA6
:100BD000F86012E0FFF736FB04467868FFF782FE04
:100BE0000346B4FBF3F3FB6007E00023FB6041F234
:100BF00022510848FFF7AAFB00BFFB6818461437CC
:100C0000BD4690BD00400E4002001E0005002400BD
:100C1000030020005447000080B584B000AF786026
:100C20007B681B0903F00F03BB60BB68013B092B0A
:100C300000F2B78001A252F823F000BF650C00005B
:100C4000750C0000850C0000A50C0000A30D000031
:100C5000A30D0000B50C0000C50C00001D0D000028
:100C60007B0D0000554BD3F800311B0A03F01F0326
:100C7000FB609EE0514BD3F814311B0A03F01F03B5
:100C8000FB6096E04D4BD3F800311B0E03F00103DF
:100C9000FB60FB6801331846FFF78AFB0346013B04
:100CA000FB6086E0454BD3F80C311B0AC3F3080305
:100CB000FB607EE0414BD3F808311B0AC3F3080305
:100CC000FB6076E07B683E4A934203D03D4A934204
:100CD0000DD01AE0394BD3F8203103F00F03FB603D
:100CE000F868FFF765FB0346013BFB6015E0334BFB
:100CF000D3F820311B0903F00303FB60F868FFF70A
:100D000057FB0346013BFB6007E00023FB6041F219
:100D100096512D48FFF71AFB00BF4AE07B682B4A2B
:100D2000934203D02A4A93420ED01DE0234BD3F8BE
:100D300028311B0903F00303FB60F868FFF738FB59
:100D40000346013BFB6017E01C4BD3F828311B0A1C
:100D500003F00303FB60FB6804331846FFF728FB2E
:100D60000346013BFB6007E00023FB6041F2BA5100
:100D70001548FFF7EBFA00BF1BE07B68154A93426A
:100D800006D10E4BD3F8303103F00303FB6007E0CC
:100D90000023FB6041F2C9510B48FFF7D7FA00BFAF
:100DA00007E00023FB6041F2EE510748FFF7CEFA5F
:100DB00000BFFB6818461037BD4680BD00400E409E
:100DC0008006160080162E005447000090171A0067
:100DD00090273000A009140080B584B000AF78607F
:100DE0000123FB737B6803F00F03BB60BB68013B0F
:100DF000072B00F2C48001A252F823F01D0E000060
:100E0000730E0000A30E00007F0F0000E90E00002B
:100E1000190F00007F0F00003D0F00005E4BD3F85C
:100E2000943003F00703023B052B1ED801A252F8B1
:100E300023F000BF590E0000530E00004D0E0000BD
:100E40005F0E00006B0E0000650E00000223FB73B6
:100E50000EE00323FB730BE00423FB7308E00B237A
:100E6000FB7305E00C23FB7302E00523FB7300BF5B
:100E70008DE0494BD3F8803003F00703022B06D0F6
:100E8000042B07D0012B08D10323FB7308E00223B6
:100E9000FB7305E00A23FB7302E00123FB7300BF31
:100EA00075E03D4BD3F8843003F00703013B032B7F
:100EB00016D801A252F823F0C90E0000CF0E000090
:100EC000DB0E0000D50E00000323FB730BE00223B2
:100ED000FB7308E00A23FB7305E00623FB7302E0C3
:100EE0000123FB7300BF52E02B4BD3F8883003F093
:100EF0000703022B06D0042B07D0012B08D10323B4
:100F0000FB7308E00223FB7305E00A23FB7302E096
:100F10000123FB7300BF3AE01F4B1B6F03F001037B
:100F2000002B04D0012B05D10923FB7305E0072317
:100F3000FB7302E00123FB7300BF28E0164BD3F8DC
:100F40005C3103F03003102B0CD0102B02D8002B97
:100F500005D010E0202B08D0302B09D00BE0012366
:100F6000FB730BE00723FB7308E00423FB7305E02E
:100F70000823FB7302E00123FB7300BF07E000239B
:100F8000FB7341F642110548FFF7E0F900BFFB7B18
:100F900018461037BD4680BD00400E405447000043
:100FA00080B58AB000AF78600B46FB7003237B628C
:100FB000032387F823300023BB6100237B617B6818
:100FC000112B19D1FB78042B03D1FFF77FF978613E
:100FD0000BE0FB78052B08D100F0F4F90246BA4B80
:100FE0009A4202D900F0EEF978617B69002B03D0B8
:100FF0000021786901F022F87B6803F00F033B6160
:101000003B69013B072B00F2558101A252F823F006
:10101000311000003B1100006D110000B5120000FE
:101020004F1100000D120000B51200003712000031
:10103000FB78023B0A2B49D801A252F823F000BFEB
:101040006D1000007910000085100000971000005E
:10105000CD100000CD100000CD100000CD1000001C
:10106000C1100000A9100000B510000004237B622D
:10107000002387F823302FE003237B62012387F8C6
:10108000233029E002237B62022387F823308F4834
:10109000FFF7DCF920E001237B62032387F823308C
:1010A0008A48FFF7D3F917E005237B62032387F80B
:1010B000233011E007237B62062387F823300BE0FF
:1010C00041F603218248FFF741F9F9E041F6082192
:1010D0007F48FFF73BF9F3E097F82330062B06D063
:1010E00097F8233001220121184600F0B5FAFFF7E6
:1010F000C3FAFFF7E9FB7B69002B01D0FFF780F90A
:10110000744A7B6A5367FFF773F8F860FFF79AF841
:1011100003461846FFF79AF9FFF78AF9034619467E
:10112000F868FFF7CBFA7B69002B03D1012100207F
:1011300000F084FFFFF7CFFBC2E0674BBB61FB7899
:10114000062B04D141F647216148FFF7FFF8BB6940
:10115000002B01D0BB6900E0604BBB61FB78062B24
:1011600004D141F657215A48FFF7F0F8BB69002B2C
:1011700001D0BB6900E05A4BBB61FB78013B092BF6
:101180003AD801A252F823F0B1110000B7110000C3
:10119000C7110000F9110000F9110000D71100007B
:1011A000F9110000F9110000F9110000F31100001D
:1011B0000023FB6126E001220121002000F04CFA0F
:1011C0000223FB611EE001220121012000F044FA0C
:1011D0000123FB6116E0FFF735F803461846FFF7D9
:1011E00035F9012202213F48FFF7B6F80323FB61DE
:1011F00008E00423FB6105E041F682213448FFF753
:10120000A5F85DE0BB69FA691A6059E0FB78072B25
:1012100002D0092B04D007E02E4B00221A6709E008
:101220002C4B01221A6705E041F60C312848FFF7E4
:101230008DF845E044E0FB78013B072B28D801A25C
:1012400052F823F065120000911200009112000084
:101250007B12000091120000911200006B1200003E
:101260008B1200000023FB6118E001220121042001
:1012700000F0F2F90123FB6110E0012201210220BC
:1012800000F0EAF90223FB6108E00323FB6105E0BB
:1012900041F66A310E48FFF759F811E00D4BD3F8CB
:1012A0005C3123F03002FB691B010A491343C1F88A
:1012B0005C3105E041F641410548FFF747F800BFC2
:1012C0002837BD4680BD00BF002D31010148E8012F
:1012D0005447000000400E4080400E4088400E40C1
:1012E00084400E40B0400E4080B483B000AF7860C0
:1012F0007B68294A93422FD0274A934210D8274A25
:10130000934221D0254A934203D8254A93421BD0C9
:101310003AE0244A934217D0234A934218D033E04C
:10132000224A934224D0214A934206D8204A93422B
:1013300016D0204A934217D026E01F4A93421BD072
:101340001E4A93421CD01FE01D4BD3F880301CE096
:101350001B4BD3F88C3018E0194BD3F8983014E0BD
:10136000174BD3F89C3010E0154BD3F8A0300CE0AD
:10137000134BD3F8A83008E0114BD3F8AC3004E09D
:101380000F4BD3F8B03000E0002318460C37BD46B1
:101390005DF8047B704700BF405DC60080841E007E
:1013A00040420F0000093D00C0CF6A0080BA8C01A6
:1013B0000024F400C0EA21010048E80180D543027E
:1013C000B081E00F80B400AF034B1B681846BD46E8
:1013D0005DF8047B704700BF0C00002080B586B02C
:1013E00000AF78607868FFF77FFF78617B69002B3A
:1013F00003D07B69B3F1FF3F04D141F6D3514E488E
:10140000FEF7A4FF4D4B1B683B614C4A7B681360A1
:101410001120FFF7E1FC0346052B03D1FFF72CF960
:10142000FFF752FA00BF18214548FEF7ACFF03460C
:10143000002BF8D17B69B3F1FF3F04D141F6E451B1
:101440003D48FEF783FF7B683E4A93420DD03E4AFB
:10145000934211D03D4A934200D012E07B6923F0C1
:10146000C06343F080637B610BE07B6923F0C06362
:1014700043F000737B6104E07B6923F0C0637B6110
:1014800000BF1120FFF7A8FC0346052B02D17868A6
:10149000FEF7DCFF7A683B699A4203D9012178683C
:1014A00000F0CCFD2A4A7B6913611120FFF794FC00
:1014B0000346052B26D1FEF79BFEF860FA687B6891
:1014C0009A4204D941F610611B48FEF73FFF1B4BBF
:1014D0001B68FA689A4204D941F611611648FEF772
:1014E00035FF164B1B687A689A4204D041F61261A8
:1014F0001148FEF72BFFFEF79BFF03461946F868DD
:10150000FFF7DCF8FEF79EFE03461846FEF79EFF47
:101510007A683B699A4203D80121002000F08EFDD1
:101520001120FFF759FC0346052B01D1FFF7D3F932
:1015300000BF1837BD4680BD544700000C00002096
:1015400040410E4080841E0000093D0040420F00D3
:1015500000400E4090B585B000AF78601120FFF7D5
:101560003BFC0346042B04D141F6F1613748FEF7FA
:10157000EDFE01220021022000F06EF87B685B780E
:10158000002B07D17B689B78002B03D17B68DB782D
:10159000002B04D041F62F712C48FEF7D7FE002314
:1015A000FB607B681B7C012B04D141F6347127481A
:1015B000FEF7CCFE7B681B7C022B01D10123FB6074
:1015C000234B5B6A23F001022149FB6813434B6202
:1015D0007B681B781A4608211E48FEF7BDFE7B6813
:1015E0009B88DB027A68527A1146194A0B43D36210
:1015F000174B1B6B03F07F627B68DB88DB021343B6
:101600007A68927A1A437B681B7ADB0142EA030408
:101610007B681B7A1846FFF771F803460C4A234390
:1016200013637B685B7B1A037B689B7B1B01134303
:101630007A68D27B1A437B681B7B1B0404491343E3
:101640004B6300BF1437BD4690BD00BF5447000038
:1016500000400E4024400E4080B588B000AF0346E5
:10166000FB710B46BB7113467B71FB79042B3CD895
:1016700001A252F823F000BFD5160000C3160000E7
:101680009F1600008D160000B116000001237B613B
:1016900002233B610123FB610023BB612BE0042398
:1016A0007B6108233B610323FB610223BB6122E0D2
:1016B00010237B6120233B610523FB610423BB6175
:1016C00019E040237B6180233B610723FB610623F4
:1016D000BB6110E04FF480737B614FF400733B619A
:1016E0000923FB610823BB6105E042F2470145483D
:1016F000FEF72CFE83E0BB79002B64D00023FB7344
:10170000FB79022B1AD1FFF715F80346002B15D1F0
:101710003D4BDB6B03F48063002B04D142F2560196
:101720003848FEF713FE0123FB73384B5B6A03F066
:101730000103012B02D10120FFF70AF8334A7B692C
:10174000136600BFB9693248FEF71DFE0346002B41
:10175000F8D07B79002B52D000BFF9692C48FEF7F6
:1017600012FE0346002BF8D0FB79022B47D1FB7BFE
:10177000002B44D0254B5B6A03F00103012B05D1FC
:1017800001222021022000F087F903E0002102203D
:1017900000F028F9022000F03DF8B8600122002195
:1017A0000220FFF759FFB968022000F071F8174ACC
:1017B0007B69136600BFF9691548FEF7E4FD03462F
:1017C000002BF8D01BE0114A3B69136600BF0F4B9A
:1017D000D3F890300121BA6901FA02F21340002BCC
:1017E000F5D17B79002B0AD000BF084BD3F890309D
:1017F0000121FA6901FA02F21340002BF5D12037DA
:10180000BD4680BD5447000000300E4000400E40F1
:1018100090400E4080B584B000AF0346FB71FB7969
:10182000013B032B23D801A252F823F03D180000FE
:10183000611800004918000055180000124B1B6A7F
:10184000C3F30803FB601AE00F4B1B6903F07F032F
:10185000FB6014E00C4B9B6903F07F03FB600EE020
:10186000094BD3F89C30C3F30A03FB6007E0002365
:10187000FB6042F2D3010548FEF768FD00BFFB683C
:1018800018461037BD4680BD00400E40544700004A
:1018900080B584B000AF03463960FB71FB79013B32
:1018A000032B00F28C8001A252F823F0BD18000037
:1018B00071190000FD180000371900003B68B3F5EE
:1018C000007F04D342F2F9014248FEF73FFD3B6836
:1018D000C3F308033B6000BF1A213F48FEF753FDE6
:1018E0000346002BF8D13D4B1B6A23F4FF7323F012
:1018F00001033A493A6813430B6266E03B687F2B69
:1019000004D942F206113348FEF720FD3B6803F08C
:101910007F033B6000BF18212F48FEF734FD0346CC
:10192000002BF8D12D4B1B6923F07F022B493B681C
:1019300013430B6149E03B687F2B04D942F221112C
:101940002448FEF703FD3B6803F07F033B6000BFC4
:1019500019212148FEF717FD0346002BF8D11F4B34
:101960009B6923F07F021D493B6813438B612CE088
:101970001A4BD3F8903003F00403002B04D042F24A
:1019800030111448FEF7E2FC144B5B6A23F030037D
:10199000124A43F0100353623B68DB0903F00F0364
:1019A0001846FEF7ABFEF8600C4B1A6B0C4B13405D
:1019B0003A681A430949FB6813430B6305E042F296
:1019C0004A110448FEF7C2FC00BF00BF1037BD46F5
:1019D00080BD00BF5447000040410E4000400E4013
:1019E00000F8FF0F80B584B000AF03460A46FB71D4
:1019F0001346BB71FB79022B04D042F262112348DB
:101A0000FEF7A4FCFEF796FE0346002B03D14FF42D
:101A10004003FB601BE0BB79202B04D0302B0AD0A5
:101A2000002B04D00BE04FF40003FB600FE04FF4F9
:101A30004003FB600BE04FF44003FB6007E0144BF6
:101A4000FB6042F27D111148FEF780FC00BF00BF31
:101A5000104BD3F89020FB681340FA689A42F7D1F4
:101A6000FB6803F48003002B0AD00A4BD3F8A030A4
:101A700003F48063002B14BF01230023DBB200E0DA
:101A8000012318461037BD4680BD00BF54470000F3
:101A9000FF33E10700400E4080B582B000AF03463F
:101AA000FB710B46BB7113467B71FB79022B15D181
:101AB000BB79002B07D00F4B4FF48062C3F8A820EE
:101AC0000C4ABB7953667B79002B0DD0BA79FB7930
:101AD00011461846FFF786FF034607E042F2B311AE
:101AE0000548FEF733FC00E000BF01231846083725
:101AF000BD4680BD00400E405447000080B483B016
:101B000000AFEFF310833B603B687B6072B67B688D
:101B100018460C37BD465DF8047B704780B483B02F
:101B200000AF78607B68002B00D162B600BF0C3735
:101B3000BD465DF8047B704780B500AFFEF758FBEB
:101B400000BF80BD80B487B000AFF860B9607A6034
:101B5000FB6803F10473DA00BB6813449B007B61EC
:101B60007B697A681A6000BF1C37BD465DF8047B4C
:101B7000704780B485B000AF786039607B6803F14E
:101B80000473DA003B6813449B00FB60FB681B682E
:101B900018461437BD465DF8047B704780B400AF2B
:101BA000064B1B6803F04003002B01D1012300E02A
:101BB00000231846BD465DF8047B70473C300E405C
:101BC00080B500AFFFF7EAFF034683F00103DBB205
:101BD000002B08D100BF12210448FFF7CAFF0346BB
:101BE000002BF8D100E000BF80BD00BF04300E40E4
:101BF00080B500AFFFF7E4FF034B5B681B0C03F0FD
:101C00000303DBB2184680BD00300E4080B483B0C1
:101C100000AF7860044A7B68D36200BF0C37BD46D2
:101C20005DF8047B704700BF00300E4080B400AF09
:101C3000034B5B6A1846BD465DF8047B704700BFE6
:101C400000300E4080B400AF034B00225A6300BF47
:101C5000BD465DF8047B704700300E4080B400AF95
:101C6000044B4AF6E8525A6300BFBD465DF8047B58
:101C7000704700BF00300E4080B400AF044B00221C
:101C8000C3F8802100BFBD465DF8047B704700BFEC
:101C900000400E4080B400AF044B45F60E02C3F87E
:101CA000802100BFBD465DF8047B704700400E40B8
:101CB00080B483B000AF0346FB71FB79C3F102032C
:101CC000102202FA03F318460C37BD465DF8047B78
:101CD0007047000090B585B000AF0346FB71FB79FB
:101CE000002B1BD14A4BD3F890304A4A1360112085
:101CF000FFF772F803461A46474B1A70FFF760FF6A
:101D0000464B5B681B0CDBB203F00303DAB2444BB7
:101D10001A703F4B1B69434A136075E0FFF73EFFA3
:101D20000346002B07D03E4B1B783C4C1846FFF770
:101D3000BFFF03462361364BD3F8803103F0010324
:101D4000FB60FFF7A7FF0023BB60324B1B6803F06B
:101D50000103BA681343BB602E4B1B6803F01003EA
:101D6000BA681343BB602B4B1B6803F04003BA688F
:101D70001343BB60274B1B6803F00403BA6813438B
:101D8000BB60244B1B6803F48073BA681343BB60C9
:101D90001F4ABB681366FFF713FF204B1B6803F055
:101DA0001003002B18D000BF194BD3F8403103F0BB
:101DB0008073002BF8D1164A1A4B1B681361164B1F
:101DC0001B78052B08D1184B1C68FFF711FF034641
:101DD00019462046FEF772FC0F4B1B78052B05D0E9
:101DE0000D4B1B7819461120FFF7DAF8094B1B68D9
:101DF00003F00103002B02D1054B02221A66FB6897
:101E0000002B01D0FFF738FF00BF1437BD4690BD4F
:101E100000400E40D4000020D800002000300E40CA
:101E2000D9000020DC0000200C00002080B582B02A
:101E300000AFFFF7B3FE034683F00103DBB2002BD4
:101E40001FD1FFF7BDFE114B1B681B0A03F00303F4
:101E50007B600E4B5B681B0C03F003033B607A68EE
:101E60003B689A4206D9094B1B68084A43F01003A5
:101E7000136007E0054B1B68044A23F0100313604E
:101E800000E000BF0837BD4680BD00BF00300E40F7
:101E900080B483B000AF0C4B1B6803F01003002B21
:101EA0000BD00A4B1B691B0C03F01F037B607B6884
:101EB000082B02D1064B074A1A6000BF0C37BD46FB
:101EC0005DF8047B704700BF00300E4000400E40BC
:101ED0000C000020C0EA210180B400AF00BFBD4665
:101EE0005DF8047B704780B400AF00BFBD465DF86D
:101EF000047B704780B584B000AF0346FB71FB796B
:101F0000002B02D00020FFF7E5FEFFF78FFF1A4BF2
:101F10001B69194A43F004031361FFF7DDFF174BF8
:101F20001B6803F01003002B08D0FFF7E7FDF860F3
:101F300002F0A6FBF868FFF7F1FD00E030BFFFF705
:101F4000D2FFFB79002B03D00120FFF7C3FE01E095
:101F5000FFF79EFF0A4B1B68094A23F000431360FA
:101F6000FB7983F00103DBB2002B01D0FFF7E4FD26
:101F700000BF1037BD4680BD00ED00E000300E40D0
:101F80004C310E4080B584B000AF0346FB71FB7945
:101F9000002B02D00020FFF79DFEFFF747FF234BE9
:101FA000D3F8803103F00103FB60FFF773FE1F4B92
:101FB0004FF420721A66FB68002B01D0FFF75CFE1D
:101FC0001B4B1B691A4A43F004031361FFF784FF9C
:101FD000184B1B6803F01003002B08D0FFF78EFD91
:101FE000B86002F04DFBB868FFF798FD00E030BF25
:101FF000FFF779FFFB79002B03D00120FFF76AFE82
:1020000001E0FFF745FF0C4B1B680B4A23F0004330
:102010001360FB7983F00103DBB2002B01D0FFF7E3
:102020008BFD00BF1037BD4680BD00BF00400E4095
:1020300000ED00E000300E404C310E4080B584B021
:1020400000AF78600B46FB70FFF7A8FD034683F0F6
:102050000103DBB2002B28D17B68002B0FD1154B7D
:10206000D3F800311B0A03F01F030133BB60FEF7F6
:10207000E9F80246BB6802FB03F3FB6001E07B6802
:10208000FB600D4B1B78002B09D0FB680B4A934279
:1020900005D8FB781946022000F012F806E0FB781C
:1020A0001946002000F00CF800E000BF1037BD46D4
:1020B00080BD00BF00400E40D0000020002D310147
:1020C00090B587B000AF03460A46FB711346BB715B
:1020D000FFF764FD034683F00103DBB2002B3AD126
:1020E000FFF786FD03461A46FB79934235D01D4B18
:1020F000D3F800311B0A03F01F0301337B61FEF7A5
:10210000A1F838613B697A6902FB03F3FB60FB7954
:10211000022B0CD1FB68144A934204D940F2E151DE
:102120001248FEF713F902213869FEF7C7FA104C7E
:10213000FB791846FFF7BCFD03462361BB79002BF2
:1021400001D0FFF73DFDFB79002B07D10021386955
:10215000FEF7B4FA02E000BF00E000BF1C37BD4646
:1021600090BD00BF00400E40002D3101904700009F
:1021700000300E4080B582B000AF78600E4B1B6817
:1021800023F440727B685B781B020B4913430B609E
:102190007B685B78022B0AD1084B5B6A03F0005323
:1021A000002B04D040F21D610548FEF7CFF800BFB8
:1021B0000837BD4680BD00BF00300E4000400E40D5
:1021C0009047000080B400AF01231846BD465DF87B
:1021D000047B704780B582B000AF0C4BDB6E0B4ABE
:1021E00043F08073D36600210948FFF7C2FC786092
:1021F0007B68002B03D0042000F04EFD02E000209D
:1022000000F04AFD00BF0837BD4680BD00300E40DB
:102210004C300E4080B58AB000AF01237B627B6AF0
:102220001B053B62404BDB6C1B0A03F00F03FB6199
:102230003E4B1B881A463D4B1B8828335B081344D2
:1022400003F12801FB695A1C13469B001344B1FBA0
:10225000F3F3013BBB61BB697B6107233B613A69D7
:102260007B69934228BF1346BB61BB691B06BB61F8
:10227000BB6923F0E063002B04D040F2FF712C48CF
:10228000FEF764F83B6A23F4E003002B04D04FF41C
:1022900000612748FEF75AF8234BDB6C23F0EE620F
:1022A000B9693B6A0B4320491343CB64214BB3F913
:1022B0000030002B33DB1F4BB3F90030FB81FA8970
:1022C000FB8928335B08134403F12802FB690133BF
:1022D0005900FB6901335B080B44B2FBF3F3BB60AD
:1022E000BB687B6007233B603A687B68934228BFEA
:1022F0001346BB60BB681B01BB60BB6823F0700367
:10230000002B04D040F618010948FEF71FF8064BD1
:102310001B6D23F070020449BB6813430B6500BFBB
:102320002837BD4680BD00BF00300E40C8000020E9
:1023300090470000CC00002080B483B000AF7860EC
:102340000B467B807B689AB2054B1A80054A7B88D6
:10235000138000BF0C37BD465DF8047B704700BF9B
:10236000C8000020CC00002080B582B000AF03463A
:10237000FB71FB79002B02D0012B04D007E0094B45
:10238000094A9A6509E0074B084A9A6505E040F654
:1023900044010748FDF7DAFF00BF00BF0837BD461C
:1023A00080BD00BF00300E4077402057372110B766
:1023B0009047000080B584B000AF0346FB710B4628
:1023C000BB7113467B71334BD3F88031FB60BB7913
:1023D000032B1DD801A252F823F000BFED2300000B
:1023E000F5230000FF23000009240000FB68DBB296
:1023F000FB6014E0FB681B0ADBB2FB600FE0FB68CC
:102400001B0CDBB2FB600AE0FB681B0EFB6006E006
:1024100040F688012048FDF799FF002336E07B79DC
:10242000002B16D1FB681B03FB60FB6823F4704391
:10243000002B06D040F693011748FDF787FF0023D5
:1024400024E0164BDB6E23F470421449FB681343FF
:10245000CB667B79012B18D1FB681B03FB60FB6803
:1024600023F47043002B06D040F69F010A48FDF785
:102470006DFF00230AE0094BD3F8EC3023F47042DF
:102480000649FB681343C1F8EC30012318461037A6
:10249000BD4680BDB081E00F9047000000300E4087
:1024A00080B588B000AFF860B96011461A460B4697
:1024B000FB711346BB710023FB610023BB61BB7939
:1024C0001B02FA79002A01D0012200E00022134306
:1024D0007B617B6940F2011293422AD0B3F5817F80
:1024E00007D2012B19D0012B47D3B3F5807F50D0F1
:1024F00073E040F20122934227D040F2012293423E
:1025000003D8B3F5007F50D067E0B3F5407F58D0D3
:1025100040F20132934224D05FE0384BD3F874315B
:10252000FB61FB691B0ADBB2BB61FB69DBB2FB61D0
:1025300059E0324BD3F87431FB61FB691B0EBB6170
:10254000FB691B0CDBB2FB614DE02C4BD3F87831FF
:10255000FB61FB691B0ADBB2BB61FB69DBB2FB61A0
:1025600041E0264BD3F87831FB61FB691B0EBB6160
:10257000FB691B0CDBB2FB6135E0204BD3F86C31FF
:10258000FB61FB691B0ADBB2BB61FB69DBB2FB6170
:1025900029E01A4BD3F86C31FB61FB691B0EBB6160
:1025A000FB691B0CDBB2FB611DE0144BD3F87031EF
:1025B000FB61FB691B0ADBB2BB61FB69DBB2FB6140
:1025C00011E00E4BD3F87031FB61FB691B0EBB6150
:1025D000FB691B0CDBB2FB6105E040F60411084807
:1025E000FDF7B4FE00BFFB68FA691A60BB68BA6900
:1025F0001A6000BF2037BD4680BD00BFB081E00F2C
:102600009047000080B584B000AF0346FB713E4B9D
:102610005B6B012B0CBF01230023FB73FFF71EFB39
:1026200000BF394B9B6F03F00103002BF9D1364BF0
:102630001B6C03F00303BB60BB68002B04D00122BA
:102640000D213248FFF77EFABB68DBB2FA799A4275
:1026500008D1FB79002B53D100220D212B48FFF725
:1026600071FA4DE0BB68032B02D0BB68002B20D170
:10267000FB79022B02D0FB79012B1AD14FF40020F9
:10268000FFF7C4FA00BF204B9B6F03F00103002B40
:10269000F9D11D4B1B6C23F003031B4A43F00103CC
:1026A000136400BFFFF7C2FA034603F40023002BB4
:1026B000F8D000BF144B9B6F03F00103002BF9D13E
:1026C000114B1B6C23F00302FB790F4913430B647E
:1026D00000BF0D4B9B6F03F00103002BF9D1FB7979
:1026E000002B14BF01230023DBB21A460D2107483B
:1026F000FFF728FAFB7B002B03D0FFF7A3FA00E0DB
:1027000000BF1037BD4680BD00300E4054300E4033
:1027100080B584B000AF78606B4B02229A636A4B3D
:102720009B6B03F00F03022B06D040F6A6116748FF
:10273000FDF70CFE0023C3E0FFF744FD7B681B8917
:10274000C82B04D94FF41B616048FDF7FFFD7B687F
:102750009A887B681B899A4204D940F6B1115B487C
:10276000FDF7F4FD7B68B3F90C30C82B04DD40F6AF
:10277000B2115648FDF7EAFD7B685B78012B09D161
:102780007B689B88C82B12D940F6B6114F48FDF7DD
:10279000DDFD0CE07B685B78022B08D17B689B88B1
:1027A0000A2B04D940F6BB114848FDF7CFFD7B68E2
:1027B000DB8842F21072934204D940F6C3114348B9
:1027C000FDF7C4FD7B68DB884A2B02D80023FB6041
:1027D00015E07B68DB88B3F5FA7F03D24FF08053B6
:1027E000FB600CE07B68DB8840F6C312934203D8A1
:1027F0004FF00053FB6002E04FF04053FB60324B60
:10280000DB6C23F0405323F001037A68B2F90C200B
:10281000002A01DB012100E00021FA680A432A496D
:102820001343CB64284BD3F8EC30274A43F440736E
:10283000C2F8EC307B689A88254B1A80FFF7CAFCF7
:102840007B681B891A467B68B3F90C301946104621
:10285000FFF772FD7B689B88184600F0A9F97B683A
:102860009B7B1846FFF780FD7B685B880122012176
:10287000184600F031F8034683F00103DBB2002B69
:1028800006D040F6FA111148FDF760FD002317E06D
:102890000D4BDB6B0C4A43F48063D3637B685B783E
:1028A0001846FFF7AFFE7B689B7A202B01D10123EE
:1028B00000E000231A4605210648FFF743F90123EB
:1028C00018461037BD4680BD00300E4090470000CE
:1028D000CA0000203C300E4090B595B000AF786043
:1028E0000B46FB701346BB700023FB6400237B6424
:1028F00007F1240300221A605A609A6007F1180356
:1029000000221A605A609A6007F10C0300221A60D4
:102910005A609A6007F1080300210A461A800A46A5
:102920009A707B68B3F5E16F06D37B6840F6B832E6
:10293000934201D8012300E0002387F8433097F841
:10294000433003F0010387F8433097F8433083F0B6
:102950000103DBB2002B06D040F63F219148FDF782
:10296000F5FC002319E17B68B3F5E16F8CBF01230F
:10297000002387F8423097F84230002B0AD04FF4FA
:10298000E163FB6440F6B8337B647A6CFB6CD31A6A
:10299000BB6409E04FF49663FB644FF4E1637B642E
:1029A0007A6CFB6CD31ABB6497F84230002B0BD0C7
:1029B0007D4BD3F868313B623B6A1B0E7B613B6AFF
:1029C0001B0CDBB23B620AE0774BD3F868313B6209
:1029D0003B6A1B0ADBB27B613B6ADBB23B62734B37
:1029E000DB6C1B0FDBB203F00303DBB23B723B7A01
:1029F00097F8422007F10C0107F11800FFF750FD8E
:102A00006A4BD3F8EC301B0ADBB203F00303DBB2F2
:102A10007B727C7A97F8422007F10C03191D07F1AD
:102A20001803181D2346FFF73BFD7A68FB6CD31A89
:102A300079693A6A8A1A02FB03F2BB6CB2FBF3F3C0
:102A4000FB62FA6A3B6A1344FB627A68FB6CD31A36
:102A5000F968BA698A1A02FB03F2BB6CB2FBF3F3A2
:102A60007B627A6ABB6913447B627A68FB6CD31A17
:102A70003969FA698A1A02FB03F2BB6CB2FBF3F301
:102A8000BB62BA6AFB691344BB62FA6A7B699A4209
:102A900013D8FA6A3B6A9A420FD3BA6A3B699A42E0
:102AA0000BD8BA6AFB699A4207D37A6AFB689A42E2
:102AB00003D87A6ABB699A4206D240F68D2139481A
:102AC000FDF744FC002368E0BB78002B12D0374BA5
:102AD000DB6D23F4FE4323F00203FA6A1202134370
:102AE00097F84220002A01D0022200E000222F495C
:102AF0001343CB65FB78002B4ED0397A97F84230E0
:102B000000221846FFF756FC034683F00103DBB2B0
:102B1000002B06D040F69C212248FDF717FC00232D
:102B20003BE0797A97F8423001221846FFF742FCE1
:102B3000034683F00103DBB2002B06D040F6A4214C
:102B40001848FDF703FC002327E07B6AFB63BB6AA0
:102B5000BB63BA6BFB6B934238BF13467B627B6AE5
:102B60007B63E7233B633A6B7B6B934228BF13463F
:102B70007B620E4B5B6E23F4FF7323F001037A6AD2
:102B80005200134397F84220002A01D0012200E0AE
:102B90000022064913434B66012318465437BD46AD
:102BA00090BD00BF90470000B081E00F00300E40A4
:102BB00080B584B000AF78600023FB60344B1B6F9E
:102BC00003F00703BB60324BDB6C03F00103002B07
:102BD00014D0BB68012B11D97B68132B02D80423B6
:102BE000FB603DE07B68132B05D97B68272B02D85F
:102BF0000823FB6034E01023FB6031E0244BDB6CE6
:102C000003F00103002B14D1BB68012B11D87B68A2
:102C1000092B02D80423FB6022E07B68092B05D92D
:102C20007B68132B02D80823FB6019E01023FB609C
:102C300016E0174BDB6C03F00103002B0BD0BB68D5
:102C4000012B08D87B68272B02D80823FB6007E0FC
:102C50001023FB6004E040F6E2210E48FDF776FB0E
:102C6000FB68013BFB60FB681A02FB681B03134314
:102C7000FB60074BDB6C23F47F420549FB68134381
:102C8000CB64FFF7C7FA00BF1037BD4680BD00BF59
:102C900000300E409047000080B584B000AF03467E
:102CA000FB7100211148FEF764FFF860FB68002B00
:102CB00002D1FB79012B07D9FB68002B04D140F628
:102CC00001310B48FDF742FB0A4B1B6F23F0070253
:102CD000FB79084913430B67074B1B881846FFF71E
:102CE00067FF00BF1037BD4680BD00BF4C300E40AF
:102CF0009047000000300E40CA00002080B485B02C
:102D000000AF786039607B6803F1C063FB60FB68EB
:102D10003A681A6000BF1437BD465DF8047B7047FF
:102D200080B485B000AF786039607B6803F1806360
:102D3000FB60FB683A681A6000BF1437BD465DF857
:102D4000047B704780B584B000AFF860B9607A60EA
:102D5000B968F868FFF7E4FF7968F868FFF7CEFF15
:102D600000BF1037BD4680BD80B582B000AF0346BE
:102D70003960FB71FB79002B38D0FB79012B32D005
:102D8000FB79022B2CD0FB79032B26D0FB79042B6B
:102D900021D0FB79052B1BD0FB79062B16D0FB79B4
:102DA000072B11D0FB79082B0CD0FB79092B06D00F
:102DB000FB790A2B01D107231AE0002318E04FF416
:102DC000404315E00F2313E0002311E000230FE040
:102DD0004FF6FF730CE000230AE04FF47F4307E057
:102DE00040F6FF7304E04FF6C07301E040F2FF339A
:102DF0003A68134103F00103002B04D14FF47771BB
:102E00000C48FDF7A3FAFA7913465B0013441B0143
:102E10000C3303F1804303F5204301213A6801FAA2
:102E200002F211461846FFF77BFF00BF0837BD4688
:102E300080BD00BFA447000080B582B000AF03464C
:102E40003960FB71FB79002B38D0FB79012B32D034
:102E5000FB79022B2CD0FB79032B26D0FB79042B9A
:102E600021D0FB79052B1BD0FB79062B16D0FB79E3
:102E7000072B11D0FB79082B0CD0FB79092B06D03E
:102E8000FB790A2B01D107231AE0002318E04FF445
:102E9000404315E00F2313E0002311E000230FE06F
:102EA0004FF6FF730CE000230AE04FF47F4307E086
:102EB00040F6FF7304E04FF6C07301E040F2FF33C9
:102EC0003A68134103F00103002B04D140F20B4197
:102ED0000C48FDF73BFAFA7913465B0013441B01DB
:102EE0000C3303F1804303F5204301213A6801FAD2
:102EF00002F211461846FFF701FF00BF0837BD4632
:102F000080BD00BFA447000080B582B000AF03467B
:102F10003960FB71FB79002B1DD0FB79012B1AD096
:102F2000FB79022B17D0FB79032B14D0FB79042BF0
:102F300016D0FB79052B0ED0FB79062B10D0FB7930
:102F4000072B0DD0FB79082B05D0FB79092B02D07C
:102F5000FB790A2B04D13B6823F00113002B03D02B
:102F600082210B48FDF7F2F9FA7913465B0013440E
:102F70001B0103F1804303F520433A684FF0011130
:102F80001846FFF7DFFE00BF0837BD4680BD00BF13
:102F90000848000080B584B000AFB9607B6003468C
:102FA000FB731346BB73FB7B002B38D0FB7B012BE1
:102FB00032D0FB7B022B2CD0FB7B032B26D0FB7B60
:102FC000042B21D0FB7B052B1BD0FB7B062B16D0C3
:102FD000FB7B072B11D0FB7B082B0CD0FB7B092B39
:102FE00006D0FB7B0A2B01D107231AE0002318E04F
:102FF0004FF4404315E00F2313E0002311E00023BA
:103000000FE04FF6FF730CE000230AE04FF47F431C
:1030100007E040F6FF7304E04FF6C07301E040F2B2
:10302000FF33BA68134103F00103002B04D140F2CF
:103030001B113948FDF78AF9BB7B002B0DD07B684B
:10304000002B05D0FB7BB9681846FFF7F5FE04E0BE
:10305000FB7BB9681846FFF787FEBB68072B20D8B3
:103060002E49FA7B13465B0013441B010B440433C7
:103070001A68BB689B000F2101FA03F3DB4313407E
:10308000B97BBA68920001FA02F211462348FA7B32
:10309000194313465B0013441B01034404331960B6
:1030A00025E01E49FA7B13465B0013441B010B44C9
:1030B00008331A68BB6803F18043083B9B000F216B
:1030C00001FA03F3DB4302EA0301BA7BBB6803F1B5
:1030D0008043083B9B0002FA03F31048FA7B194334
:1030E00013465B0013441B01034408331960BB7B88
:1030F000002B0DD17B68002B05D0FB7BB9681846EF
:10310000FFF79AFE04E0FB7BB9681846FFF72CFE38
:1031100000BF1037BD4680BD0848000000A0004039
:1031200080B483B000AF786039607B683A68DA6356
:1031300000BF0C37BD465DF8047B704780B487B094
:1031400000AFF860B9607A60FB6803F10473DA00DD
:10315000BB6813449B007B617B697A681A6000BF7F
:103160001C37BD465DF8047B704780B485B000AF66
:10317000786039607B6803F1C063FB60FB683A6884
:103180001A6000BF1437BD465DF8047B704780B4F9
:1031900085B000AF786039607B6803F18063FB60C5
:1031A000FB683A681A6000BF1437BD465DF8047BBF
:1031B000704780B584B000AFF860B9607A60B968D4
:1031C000F868FFF7E4FF7968F868FFF7CEFF00BF03
:1031D0001037BD4680BD000080B588B000AFF860F4
:1031E000B9607A60FB707B68002B04D14FF48A7160
:1031F0005448FDF7ABF87B68002B00F09E80FB780D
:1032000003F00303FB70FB681B6823F44072FB6848
:103210001A60F868FB781B021A464FF44071FFF7FA
:10322000C8FFBB68002B16D1FB68474A934204D104
:103230004648FDF7D1FBB8600DE0FB68444A934275
:1032400004D14448FDF7C8FBB86004E04FF497711F
:103250003C48FDF77BF84FF0FF33FB61FB681B68D0
:1032600003F00203002B10D0FB78012B07D0022BB8
:1032700008D0002B00D019E0374BFB6116E0374B2C
:10328000FB6113E0364BFB6110E0FB78012B07D0AC
:10329000022B08D0002B00D008E02F4BFB6105E08B
:1032A000304BFB6102E0304BFB6100BFBA68FB6949
:1032B0009A4204D840F263112248FDF747F8FB78A0
:1032C0002A4AD35C7B617B697A6802FB03F33B612A
:1032D0003B69002B05D14FF4BA711A48FDF736F857
:1032E0002CE07B68DB00BA68D21A3B6913445A1E93
:1032F0003B69B2FBF3F3013BBB61BB69002B04DA12
:103300004FF4BD710F48FDF721F8BB69B3F5007F9D
:1033100004D340F27B110B48FDF718F8FB681B68DB
:1033200003F00203002B04D0BB69002B01D1012361
:10333000BB61BA69FB681A6100E000BF2037BD4677
:1033400080BD00BF2048000000C000400082040093
:1033500000C400400092040080841E00404B4C00DA
:10336000809FD50040548900002D31011C48000089
:1033700080B582B000AF78600B46FB707B680B4A6B
:10338000934208D07B680A4A934204D04FF4CA7132
:103390000848FCF7DBFF7B68FA7800211846FFF746
:1033A000CDFE00BF0837BD4680BD00BF00C0004055
:1033B00000C400402048000080B582B000AF7860B3
:1033C00039607B68174A934208D07B68164A93425B
:1033D00004D040F2A9111548FCF7B8FF7B68002221
:1033E0001A6413497868FFF79BFE78683B685B783E
:1033F00083F00103DBB21A460121FFF79FFE3B6811
:1034000059683B689A683B681B7B7868FFF7E4FE65
:103410003B681B7819467868FFF7AAFF00BF08379A
:10342000BD4680BD00C0004000C4004020480000F0
:10343000FFFF070080B483B000AF7860396000BF41
:103440007B685A6B3B681340002BF9D100BF0C37E7
:10345000BD465DF8047B704780B582B000AF7860F0
:103460000B46FB707B680D4A934204D04FF4897180
:103470000B48FCF76BFF02217868FFF7DBFFFB7856
:10348000002B03D07B6801225A6002E07B68022295
:103490005A6000BF0837BD4680BD00BF00600440D1
:1034A0003448000080B584B000AF786039600023F4
:1034B000FB607B683D4A934204D040F26F113C4868
:1034C000FCF744FF3B681B7883F00103DBB2002B61
:1034D0000CD07B689B6803F00103002B06D002210F
:1034E0007868FFF7A7FF7B6802225A603B685B7829
:1034F000002B03D0FB6843F48053FB603B689B7850
:10350000002B03D13B68DB68002B0BD0FB6843F436
:103510000073FB603B68DB68002B03D03B68DA6814
:103520007B681A613B68DB78002B03D0FB6843F4AF
:103530008073FB603B681B79002B03D0FB6843F072
:103540004003FB603B685B79002B03D0FB6843F0D2
:103550008003FB603B689B799B001A46FB68134322
:10356000FB603B68DB791B011A46FB681343FB6079
:103570003B681B7A1A46FB681343FB607B68FA685A
:103580001A603B681B78002B0CD07B689B6803F0AB
:103590000103002B06D102217868FFF74BFF7B68FF
:1035A00001225A6000BF1037BD4680BD0060044054
:1035B0003448000080B485B000AF786039607B6823
:1035C00003F18063FB60FB683A681A6000BF143740
:1035D000BD465DF8047B704780B582B000AF0346FE
:1035E0003960FB71FB79002B38D0FB79012B32D08D
:1035F000FB79022B2CD0FB79032B26D0FB79042BF3
:1036000021D0FB79052B1BD0FB79062B16D0FB793B
:10361000072B11D0FB79082B0CD0FB79092B06D096
:10362000FB790A2B01D107231AE0002318E04FF49D
:10363000404315E00F2313E0002311E000230FE0C7
:103640004FF6FF730CE000230AE04FF47F4307E0DE
:1036500040F6FF7304E04FF6C07301E040F2FF3321
:103660003A68134103F00103002B04D14FF4777142
:103670000C48FCF76BFEFA7913465B0013441B0100
:103680000C3303F1804303F5204301213A6801FA2A
:1036900002F211461846FFF78DFF00BF0837BD46FE
:1036A00080BD00BF4C48000080B500AF00F0C4F8FA
:1036B00000F0E2F800F07CFD00F034FE00F0C4FD04
:1036C0004FF4E0531C224FF07A51044800F00AF8FE
:1036D0000121034800F0D8FC00BF80BD6666E63FCC
:1036E0000060044080B590B000AFF860B9607A60C7
:1036F0003B6000237B7400233B74FB683B62BB6828
:103700007B6200233B7700237B777B687B613B6890
:10371000BB61002387F828300123FB62002387F870
:10372000303002237B63012387F838300423FB63A6
:1037300007F110031946034800F0C2FB00BF4037F1
:10374000BD4680BD0060044080B500AF00F070FD54
:10375000034603F00403002B03D17E210548FCF748
:10376000F5FD042000F04CFD082000F08FFD00BFA7
:1037700080BD00BFB048000080B500AF00F058FD2C
:10378000034603F00103002B03D194210548FCF705
:10379000DDFD012000F034FD96210248FCF7D6FD46
:1037A00000BF80BDB048000080B500AF00F040FD14
:1037B000034603F00203002B03D1A4210548FCF7C4
:1037C000C5FD022000F01CFDA6210248FCF7BEFD4D
:1037D00000BF80BDB048000080B582B000AF00F0EF
:1037E00027FD034603F00803002B03D1B421104842
:1037F000FCF7ACFD082000F003FD00F067FD7860E9
:10380000D7ED017A9FED0B7AF4EEC77AF1EE10FA5C
:1038100006DB0123042205210520FFF7BBFB03E0A3
:1038200005210520FFF7D8FE00BF0837BD4680BD43
:10383000B04800000000204280B500AF01210B48D5
:10384000FDF75EF8002200210120FDF705FF0022B0
:1038500000210020FDF700FF0A210548FDF7A0FB2D
:1038600001210448FDF74CF800BF80BD4041050030
:1038700002001E0030253E0080B500AF012118482F
:10388000FDF73EF800210520FFF73EFB0023042250
:1038900004210520FFF77EFB00210520FFF734FB04
:1038A0000023042205210520FFF774FB4FF00111CE
:1038B0000120FFF729FB012304220A210120FFF741
:1038C00069FB012308220B210220FFF763FB012380
:1038D00008220A210220FFF75DFB00BF80BD00BF68
:1038E00000350A0080B483B000AF0346FB7197F93E
:1038F0000730002B0BDBFB7903F01F02074997F918
:1039000007305B09012000FA02F241F8232000BFD2
:103910000C37BD465DF8047B704700BF00E100E056
:1039200080B485B000AF78607B6820225A607B68E5
:103930001B6CFB607B6800221A647B685A6B7B6897
:10394000DA637B6840225A607B6803225A6000BFBA
:103950007B685B6B03F48073002BF9D07B685A6B38
:103960007B68DA637B6820225A607B68FA681A6495
:1039700000BF1437BD465DF8047B704780B582B048
:1039800000AF78607B681B68042B34D801A252F822
:1039900023F000BFA9390000BB390000DB3900006B
:1039A000E3390000ED3900007B6801221A607B6872
:1039B0005B687A68D268DA6222E07B6802221A6069
:1039C0007B685B6801225A607B689B685A007B6851
:1039D0005B6842F00102DA6212E07B6803221A603F
:1039E0000EE05D210848FCF7B1FC09E060210648C3
:1039F000FCF7ACFC04E063210348FCF7A7FC00BF24
:103A000000BF0837BD4680BDCC48000080B582B0FD
:103A100000AF78607B681B68042B2ED801A252F897
:103A200023F000BF393A0000433A00004D3A00004D
:103A3000673A0000713A000079211448FCF786FCCF
:103A400020E07C211148FCF781FC1BE07B685B686F
:103A500001225A607B689B685A007B685B6842F071
:103A60000102DA620EE083210848FCF76FFC09E0EE
:103A700086210648FCF76AFC04E089210348FCF72C
:103A800065FC00BF00BF0837BD4680BDCC480000C4
:103A900080B582B000AF78607B681B68042B2AD8A1
:103AA00001A252F823F000BFBD3A0000C73A00005F
:103AB000D13A0000DB3A0000E53A00009F211248AD
:103AC000FCF744FC1CE0A2210F48FCF73FFC17E088
:103AD000A5210D48FCF73AFC12E0A8210A48FCF7A2
:103AE00035FC0DE0022000F05DFC7B681B6A184687
:103AF00000F070FB04E0AF210348FCF727FC00BF97
:103B000000BF0837BD4680BDCC48000080B582B0FC
:103B100000AF78607B681B68042B50D801A252F874
:103B200023F000BF393B0000433B00004D3B000049
:103B3000573B0000B53B0000C8212548FCF706FCB8
:103B400042E0CB212248FCF701FC3DE0CE21204899
:103B5000FCF7FCFB38E07B689B695A1E7B689A6126
:103B60007B689B69002B0FD07B685B68D9697B6899
:103B70009B69DA007B685B6901FA02F21A607B6874
:103B80005B6804225A601FE07B685B68D9697B68C8
:103B90005B691A687B685B690A431A607B685B68CB
:103BA00008225A607B685B6802225A607B680422A4
:103BB0001A6009E0DE210648FCF7C8FB04E0E121B9
:103BC0000348FCF7C3FB00BF00BF0837BD4680BDFC
:103BD000CC48000080B586B000AF786039607B6863
:103BE0004E4A934204D101214D48FCF789FE0CE076
:103BF0007B684C4A934204D101214B48FCF780FE7C
:103C000003E0FB214948FCF7A1FB7B685B6B03F0F9
:103C10000103002B11D17B6801229A637B685B6BE7
:103C200003F00103002B04D14FF480713F48FCF7EF
:103C30008DFB7B680122DA630DE07B680122DA6389
:103C40007B685B6B03F00103002B04D04FF482719F
:103C50003648FCF77BFB3B681B7B3B753B681B785E
:103C60003B723B689B683B613B685B787B723B685F
:103C70005B68FB6007F1080319467868FFF79CFB57
:103C80003B685A693B681B691A437B689A643B68C6
:103C90005B7E5B003A68127E1A437B685A647868E0
:103CA000FFF73EFE7B684022DA637B681B6C43F0C3
:103CB00040027B681A647B688022DA637B681B6C35
:103CC00043F080027B681A647B684FF48072DA6389
:103CD0007B681B6C43F480727B681A647B681B6C86
:103CE00043F020027B681A647B680C4A934203D13C
:103CF0001120FFF7F7FD0CE07B680A4A934203D1DD
:103D00002A20FFF7EFFD04E04FF492710748FCF71B
:103D10001DFB00BF1837BD4680BD00BF00C000407E
:103D20000082040000C4004000920400CC4800005F
:103D300080B582B000AF164B5A6B154B1B6C13400D
:103D40007B60134A7B68D3637B6803F04003002BDE
:103D500002D01048FFF712FE7B6803F08003002BAF
:103D600002D00C48FFF752FE7B6803F48073002BEF
:103D700002D00848FFF78CFE7B6803F02003002B7D
:103D800002D00448FFF7C2FE00BF0837BD4680BD21
:103D900000C000400401002080B582B000AF164B87
:103DA0005A6B154B1B6C13407B60134A7B68D363C3
:103DB0007B6803F04003002B02D01048FFF7DEFDC4
:103DC0007B6803F08003002B02D00C48FFF71EFE37
:103DD0007B6803F48073002B02D00848FFF758FE7D
:103DE0007B6803F02003002B02D00448FFF78EFE0F
:103DF00000BF0837BD4680BD00C40040040100205C
:103E000080B584B000AFF860B9607A60FB70FB6881
:103E10009B6803F0E003002B04D04FF4B371174804
:103E2000FCF794FA022000F097FA154B00221A6072
:103E3000134AFB685360124ABB689360104A7B6860
:103E4000D3600F4AFB7813740D4ABB6953610C4A67
:103E5000FB6993610A4B5B6801225A60084B9A68C0
:103E6000074B5B685200DA62054B01221A77044A5D
:103E70003B6A136200BF1037BD4680BDCC480000CE
:103E80000401002080B483B000AF0346FB7197F9B2
:103E90000730002B0BDBFB7903F01F02074997F972
:103EA00007305B09012000FA02F241F8232000BF2D
:103EB0000C37BD465DF8047B704700BF00E100E0B1
:103EC00080B588B000AF786039607B68674A9342FC
:103ED00004D101216648FCF713FD03E04F2165483A
:103EE000FCF734FA0021786800F0CEF87B680122F4
:103EF0005A6000BF7B685B6B002BFBD17B689B68C3
:103F000003F00103002B03D15D215A48FCF71EFA90
:103F10007B6802225A6000BF7B685B6B002BFBD181
:103F20007B680022DA600023FB720123BB723B68CE
:103F30001B787B723B685B783B7200233B730023EA
:103F40007B7300233B740323BB730323FB7307F1D1
:103F5000080319467868FFF7A5FA00BF7B685B6B1A
:103F6000002BFBD13B68D3ED047A9FED437A67EEDB
:103F7000877AFCEEE77A17EE903AFB613B68D3ED67
:103F8000057A9FED3D7A67EE877AFCEEE77A17EEC9
:103F9000903ABB617B68FA691A617B68BA695A61B9
:103FA0007B6864229A617B686422DA613B685A68A4
:103FB0003B689B681A437B685A643B681B7B1A46C4
:103FC0003B685B7B5B001A437B681A647B681F223B
:103FD0009A623B681B7E002B06D07B68DA6A3B68DE
:103FE000DB691A437B68DA623B6893F82030002B68
:103FF00006D07B68DA6A3B685B6A1A437B68DA62E0
:104000003B6893F82830002B06D07B68DA6A3B685F
:10401000DB6A1A437B68DA623B681A7E3B6893F876
:1040200020301343DAB23B6893F828301343DBB2F5
:10403000002B02D01B20FFF725FF3B68DB690F4AEE
:1040400013603B685B6A0E4A13603B68DB6A0D4A8B
:1040500013607B689B6803F00103002B02D00420EF
:1040600000F07AF900BF2037BD4680BD00600440F3
:1040700080061600E848000000007A44E0000020B6
:10408000E4000020E800002080B582B000AF786036
:104090000B46FB707B689B6803F00103002B0CBF91
:1040A00001230023DBB21A46FB781340002B0DD00E
:1040B000042000F051F9FB7819467868FFF7CCF935
:1040C00000BF7B685B6B002BFBD117E07B689B68B4
:1040D000FA7882F00102D2B2134003F00103002B00
:1040E0000CD0042000F05EF9FB7819467868FFF7E1
:1040F000B3F900BF7B685B6B002BFBD100BF0837B7
:10410000BD4680BD80B582B000AF244B1A6A234BF8
:10411000DB6A13407B60214A7B6893627B6803F013
:104120000103002B0ED01E4B1B68184600F052F8FE
:104130001A4B1B6A03F00103002B03D0EA21194834
:10414000FCF704F97B6803F00203002B0ED0164B3A
:104150001B68184600F03EF8104B1B6A03F0020380
:10416000002B03D0EE210F48FCF7F0F87B6803F03A
:104170000403002B0ED00D4B1B68184600F02AF8E4
:10418000064B1B6A03F00403002B03D0F221054801
:10419000FCF7DCF800BF0837BD4680BD0060044076
:1041A000E0000020E8480000E4000020E8000020D3
:1041B00080B582B000AFFDF7A1FC7860044B00220F
:1041C0001A607868FDF7AAFC00BF0837BD4680BDBD
:1041D000EC00002080B584B000AF7860FDF78EFC65
:1041E000F860064B1A687B681343044A1360F8684A
:1041F000FDF794FC00BF1037BD4680BDEC000020E9
:1042000080B584B000AF7860FDF778FCF8607B681B
:10421000DA43064B1B681340044A1360F868FDF745
:104220007DFC00BF1037BD4680BD00BFEC00002004
:1042300080B400AF034B1B681846BD465DF8047B95
:10424000704700BFEC00002080B588B000AF0123AC
:104250003B7101237B7101237B7701233B774FF473
:104260007063BB610F237B61064BFB6001233B74D2
:104270003B1D19460448FFF7ADFC00BF2037BD4683
:1042800080BD00BFDDFB050000C0004080B586B0EA
:1042900004AF7860094B1978094B1B687A68029261
:1042A0000193084B00930B46F52240210648FFF787
:1042B000A7FD00BF0837BD4680BD00BF1800002025
:1042C000140000202801002000C0004080B483B00A
:1042D00000AF0B4B1B687B607A6813465B019B1A2F
:1042E0009B0013441B0C063B07EE903AF8EE677AEE
:1042F00017EE903A18460C37BD465DF8047B7047C0
:104300002801002080B400AF054B1B69044A23F04C
:104310000403136130BF00BFBD465DF8047B7047E6
:1043200000ED00E080B483B000AF00237B6007E0C5
:10433000084A7B68002142F823107B6801337B60C8
:104340007B68042BF4DD00BF0C37BD465DF8047BB1
:10435000704700BFF000002080B584B000AF7860E7
:10436000FDF7CCFBF8600D4A7B6852F823305A1CED
:104370000A497B6841F82320084A7B6852F82330B9
:10438000042B03DD4B210648FBF7E0FFF868FDF73F
:10439000C5FB00BF1037BD4680BD00BFF000002048
:1043A0000849000080B584B000AF7860FDF7A6FB37
:1043B000F860104A7B6852F82330002B08DD0D4A64
:1043C0007B6852F823305A1E0A497B6841F8232043
:1043D000084A7B6852F82330002B03DA6021064834
:1043E000FBF7B4FFF868FDF799FB00BF1037BD4637
:1043F00080BD00BFF00000200849000080B582B0F9
:1044000000AFFDF77BFB7860174B1B68002B03DDCB
:104410007868FDF783FB23E0134B5B68002B03DD1B
:104420007868FDF77BFB1BE00F4B9B68002B05DDDD
:10443000FFF768FF7868FDF771FB11E00A4BDB6856
:10444000002B06DD0120FDF755FD7868FDF766FBC2
:1044500006E00120FDF796FD7868FDF75FFB00BFE1
:104460000837BD4680BD00BFF000002080B400AF1B
:10447000044BDB6C1B0EDBB21846BD465DF8047BBB
:10448000704700BFB081E00F80B582B000AF194B1C
:1044900001225A64FFF7EAFF0346FB71FB79002B08
:1044A0000CD1154B4AF6E8521A60144B1B68134A9C
:1044B00043F004031360104B00221A60FB79012BB8
:1044C00005D80F4B1B680E4A43F4005313600D4B85
:1044D0001B6A23F444130B4A43F4881313620A4BF8
:1044E0001B68094A43F4F843136000BF0837BD4610
:1044F00080BD00BF00000E4090310E4098310E404C
:1045000064310E4000400E40A4310E40B0B58CB076
:1045100000AF304B07F11C040FCB84E80F002E4B8B
:1045200007F108041D460FCD0FC42B682380FFF749
:10453000ABFF00233B7100237B7107F11C0318467E
:10454000FEF7E6F802237B713B1D1846FDF712FECD
:1045500007F108031846FCF7FDFF2048FCF73EFF73
:10456000012201210320FDF777F805211120FCF736
:1045700017FD002200210220FDF76EF8FFF794F8E6
:10458000FFF756FE0346002B07D1FDF7B7FAF86296
:10459000FFF734FFF86AFDF7C1FAFFF749FE03465B
:1045A000042B01D1FFF7D0F8FFF742FE0346012BA1
:1045B00001D1FFF7E1F8FFF73BFE0346022B01D1E3
:1045C000FFF7F2F8FFF734FE0346082BD8D1FFF7C8
:1045D00003F9D5E73049000040490000C0EA210155
:1045E00008B5074B044613B10021AFF30080054B1B
:1045F0001868836A03B19847204600F031F800BF7D
:10460000000000005449000070B50D4E0D4CA41B75
:10461000A4100025A54209D10B4E0C4C00F022F845
:10462000A41BA4100025A54205D170BD56F8253065
:1046300098470135EEE756F8253098470135F2E7FF
:10464000A4000020A4000020A4000020A800002056
:1046500002440346934200D1704703F8011BF9E777
:10466000FEE700BFF8B500BFF8BC08BC9E46704727
:10467000F8B500BFF8BC08BC9E46704700000000BB
:104680005FF800F07D000020633A5C73696C696339
:104690006F6E6C6162735C73696D706C6963697471
:1046A0007973747564696F5C76345C646576656C87
:1046B0006F7065725C73646B735C6765636B6F5F6F
:1046C00073646B5F73756974655C76322E375C70EA
:1046D0006C6174666F726D5C656D6C69625C696E4D
:1046E000635C656D5F636F6D6D6F6E2E68000000BB
:1046F000633A5C73696C69636F6E6C6162735C735F
:10470000696D706C696369747973747564696F5CE1
:1047100076345C646576656C6F7065725C73646B2F
:10472000735C6765636B6F5F73646B5F73756974EC
:10473000655C76322E375C706C6174666F726D5C8E
:10474000656D6C69625C696E635C656D5F636D75F8
:104750002E6800002E2E2F656D6C69622F656D5FCF
:10476000636D752E6300000040787D01000000003D
:10477000005A620200010000C0CF6A00020000007F
:10478000809FD50002010000002D310102020000CF
:104790002E2E2F656D6C69622F656D5F656D752EB0
:1047A00063000000633A5C73696C69636F6E6C61EF
:1047B00062735C73696D706C696369747973747525
:1047C00064696F5C76345C646576656C6F70657285
:1047D0005C73646B735C6765636B6F5F73646B5F63
:1047E00073756974655C76322E375C706C617466C3
:1047F0006F726D5C656D6C69625C696E635C656D42
:104800005F6770696F2E68002E2E2F656D6C696270
:104810002F656D5F6770696F2E63000008091108CE
:104820002E2E2F656D6C69622F656D5F6932632E68
:10483000630000002E2E2F656D6C69622F656D5F21
:104840006C6574696D65722E63000000633A5C7379
:10485000696C69636F6E6C6162735C73696D706CB7
:10486000696369747973747564696F5C76345C64C8
:104870006576656C6F7065725C73646B735C67659D
:10488000636B6F5F73646B5F73756974655C7632BD
:104890002E375C706C6174666F726D5C656D6C69EF
:1048A000625C696E635C656D5F6770696F2E68003E
:1048B0002E2E2F7372632F536F757263655F466977
:1048C0006C65732F6170702E630000002E2E2F73A5
:1048D00072632F536F757263655F46696C65732FE2
:1048E0006932632E630000002E2E2F7372632F53E4
:1048F0006F757263655F46696C65732F6C6574696B
:104900006D65722E630000002E2E2F7372632F537D
:104910006F757263655F46696C65732F736C65654F
:10492000705F726F7574696E65732E6300000000AE
:104930000002080705000A00C8000000FFFF010090
:1049400001000000A00068010A200706020A04070F
:0C495000000000001C000020000000001F
:08495C00F0B7FF7F010000002D
:10496400005A620200800000C0EA2101C0EA21016D
:10497400C0EA210102000000010000000000000064
:104984000000000000000000000000000000000023
:104994000000000000000000000000000000000013
:1049A4000000000000000000000000000000000003
:1049B40000000000000000000000000000000000F3
:1049C40000000000000000000000000000000000E3
:1049D40000000000000000000000000080B483B06C
:1049E40000AF074B1B6843F000437B6030BF044AB1
:1049F4007B68136000BF0C37BD465DF8047B7047CD
:0C4A04004C310E40310100000D0100009B
:04000003000001C137
:00000001FF
